:020000040800F2
:100000003004002085220008490400084B04000841
:100010004F040008530400085704000800000000C3
:100020000000000000000000000000005B04000869
:100030005D040008000000005F040008610400087F
:100040009F2200089F2200089F2200089F2200088C
:100050009F2200089F2200089F2200089F2200087C
:100060009F2200089F2200089F2200089F2200086C
:100070009F2200089F2200089F2200089F2200085C
:100080009F2200089F2200089F2200089F2200084C
:100090009F2200089F2200089F2200089F2200083C
:1000A0009F2200089F2200089F2200089F2200082C
:1000B0009F2200089F2200089F2200089F2200081C
:1000C0009F2200089F2200089F2200089F2200080C
:1000D0009F2200089F2200089F2200089F220008FC
:1000E0009F2200089F2200089F2200089F220008EC
:1000F0009F2200089F2200089F2200089F220008DC
:100100009F2200089F2200089F2200089F220008CB
:100110009F2200089F2200089F2200089F220008BB
:100120009F2200089F2200089F2200089F220008AB
:100130009F2200089F2200089F2200089F2200089B
:100140009F2200089F2200089F2200089F2200088B
:100150009F2200089F2200089F2200089F2200087B
:100160009F2200089F2200089F2200089F2200086B
:100170009F2200089F2200089F2200089F2200085B
:100180009F2200089F220008DFF80CD002F08CF8B4
:1001900000480047FD030008300400201CB5012181
:1001A000084601F08BF90121042001F087F90121B3
:1001B000022001F083F90220009003208DF8040052
:1001C00000208DF807006946954801F089FD082058
:1001D000009003208DF8040000208DF80700694688
:1001E000904801F07DFD002204218F4801F003FEBC
:1001F0001020009003208DF8040000208DF80700E7
:100200006946894801F06CFD1CBD00B589B001212B
:10021000084601F0ADF90121102001F098F9002005
:10022000ADF82000ADF81A004CF24F30079041F2C3
:10023000DF50ADF8180000208DF8220006A97B4899
:1002400000F0BDF90020ADF80400ADF81000012069
:10025000ADF806004CF24F30039001A9734800F04E
:1002600043FA01220221714800F04AFE01216F4841
:1002700000F02EFA41F2DF50ADF818004FF47A701A
:1002800007900020ADF82000ADF81A0006A96848D4
:1002900000F095F92021664800F0EAFE012164484B
:1002A00000F016FA09B000BD00B58BB001210802BC
:1002B00001F05EF90121480201F05AF9062001908F
:1002C000002003900290049001A801F085FA00201C
:1002D000099001208DF81900002008904FF08050FF
:1002E000079001208DF82800002005908DF8180057
:1002F00005A9504801F041FA0020099001208DF82D
:100300001900002008904FF08050079001208DF8D0
:100310002800002005908DF8180005A9464801F036
:100320002CFA062301220921424801F0B1FA0623E2
:1003300001220221404801F0ABFA012001F05DFBEF
:1003400001213C4801F01AFB01213B4801F016FB5A
:100350000121384801F05CFA0121374801F058FAD0
:10036000344801F0F1FA344801F0EEFA0BB000BD68
:100370001FB50121480701F0EAF80020029004208F
:100380000090002001900390694601F078FD012162
:10039000002001F091FD1FBD10B5264801F0D4FAF0
:1003A00000BF0221234801F0F1FB0028F9D02148C9
:1003B00001F006FB2149088010BD10B51E4801F070
:1003C000C3FA00BF02211C4801F0E0FB0028F9D06D
:1003D000194801F0F5FA1A49088010BD174800883D
:1003E00017490988084480B216490880704710B53B
:1003F00014480188002001F0ADFD10BDFFF7CEFECE
:10040000FFF703FFFFF750FFFFF7B2FF07E0FFF72B
:10041000C3FFFFF7D2FFFFF7E1FFFFF7E8FFF6E7C3
:1004200000040240000802400000024000000140B9
:100430000010004000200140002101400000002089
:100440000200002004000020704700BFFEE700BF4C
:10045000FEE700BFFEE700BFFEE77047704770474A
:100460007047000010B50446FE48844208D10121BF
:10047000084601F0D2F80021012001F0CEF89DE0FD
:10048000B4F1804F08D10121084601F0B5F80021F0
:10049000012001F0B1F891E0F348844208D1012134
:1004A000022001F0A9F80021022001F0A5F885E062
:1004B000EE48844208D10121042001F09DF800217A
:1004C000042001F099F879E0E948844208D101213B
:1004D000082001F091F80021082001F08DF86DE06E
:1004E000E448844208D10121102001F085F8002160
:1004F000102001F081F861E0DF48844208D1012139
:10050000202001F079F80021202001F075F855E055
:10051000DA48844208D10121022001F07EF800214E
:10052000022001F07AF849E0D548844209D101213E
:10053000080401F072F800214FF4803001F06DF8EA
:100540003CE0D048844209D10121480401F065F81B
:1005500000214FF4003001F060F82FE0CA488442D7
:1005600009D10121880401F058F800214FF48020BE
:1005700001F053F822E0C548844208D1012140200F
:1005800001F03AF80021402001F036F816E0C048AA
:10059000844208D10121802001F02EF80021802022
:1005A00001F02AF80AE0BB48844207D101218015F6
:1005B00001F022F80021A01501F01EF810BD002264
:1005C0000288A84B98420ED0AC4B98420BD0B0F1A9
:1005D000804F08D0A44B984205D0A44B984202D03B
:1005E000A34B984204D14FF68F731A404B881A439D
:1005F000A04B984207D0A04B984204D04FF6FF433F
:100600001A400B891A4302804B68C3620B8803852A
:10061000944B984202D0994B984201D18B7A038631
:100620000123838270474FF0FF3141600021018038
:1006300001814180817270470185828270470A463C
:10064000002101884FF68F731940114301807047D4
:1006500041627047C16270470146486A704701466F
:10066000088D704721B1028842F00202028004E046
:1006700002884FF6FD731A400280704721B102884C
:1006800042F00402028004E002884FF6FB731A4035
:100690000280704721B1028842F08002028004E0AB
:1006A00002884FF67F731A400280704702884FF627
:1006B000F7731A40028002880A430280704702885A
:1006C0004FF6FF431A40028002880A4302807047B7
:1006D00021B1028842F00102028004E002884FF654
:1006E000FE731A400280704770B500240022002378
:1006F000058C4FF6FE7635400584028C8388048B8A
:100700004FF68F752C40B51E2C400D882C43751E5E
:100710002A408D892A434D882A43524DA84202D04F
:10072000564DA84213D14FF6F7752A40CD892A437A
:100730004FF6FB752A408D882A434FF6FF652B4004
:100740004FF6FF552B400D8A2B434D8A2B43838058
:1007500004838D684563028470BD70B50024002257
:100760000023058C4FF6EF7635400584028C838894
:10077000048B48F6FF752C404FF6FF452C400D8842
:100780004FF6FF7606EA05252C434FF6DF752A4023
:100790008D8906EA05152A434D8806EA05152A4380
:1007A000304DA84202D0354DA8421DD14FF67F757D
:1007B0002A40CD894FF6FF7606EA05152A434FF603
:1007C000BF752A408D8806EA05152A434FF6FF3586
:1007D0002B404FF2FF752B400D8A06EA85052B430F
:1007E0004D8A06EA85052B43838004838D688563E3
:1007F000028470BD70B5002400220023058C4FF6E2
:10080000FF6635400584028C8388848B4FF68F7594
:100810002C404FF6FC752C400D882C434FF6FF55AD
:100820002A408D894FF6FF7606EA05252A434D8832
:1008300006EA05252A430B4DA84202D00F4DA842D7
:1008400038D14FF2FF752A40CD894FF6FF7606EA80
:1008500005252A434FF6FF352A408D8806EA0525EF
:100860002A4319E000000140000400400008004055
:10087000000C004000100040001400400004014043
:100880000040014000440140004801400018004081
:10089000001C0040002000404EF6FF752B404DF636
:1008A000FF752B400D8A06EA05152B434D8A06EA93
:1008B00005152B43838084838D68C563028470BDD6
:1008C00070B5002200230024058C4EF6FF763540DB
:1008D0000584038C8488828B48F6FF752A404FF686
:1008E000FF452A400D884FF6FF7606EA05252A4384
:1008F0004DF6FF752B408D8906EA05352B434D8853
:1009000006EA05352B43FE4DA84202D0FD4DA84214
:1009100008D14BF6FF752C400D8A4FF6FF7606EA9C
:1009200085152C43848082838D680564038470BDA3
:10093000002101804180818081608181C1810182AB
:100940004182704770B503460020002418461830D5
:1009500001258D40ACB21D8CA5431D8409B1082929
:100960000AD100EB610005684FF68F7635400560CF
:100970000568154305600FE00D1FC5F34E052844BB
:10098000056848F6FF763540056005684FF6FF7646
:1009900006EA02263543056070BD416370478163F6
:1009A0007047C1637047016470470A460021018B9C
:1009B0004FF68F7319401143018370470A46002197
:1009C000018B48F6FF7319404FF6FF7303EA0223C9
:1009D0001943018370470A460021818B4FF68F73BC
:1009E00019401143818370470A460021818B48F6E4
:1009F000FF7319404FF6FF7303EA02231943818303
:100A000070470A460021018B4FF6F77319401143D6
:100A1000018370470A460021018B4FF2FF73194092
:100A20004FF6FF7303EA02231943018370470A4616
:100A30000021818B4FF6F773194011438183704772
:100A40000A460021818B4FF2FF7319404FF6FF7366
:100A500003EA02231943818370470A460021018B70
:100A60004FF6FB7319401143018370470A4600217A
:100A7000018B4FF6FF3319404FF6FF7303EA022351
:100A80001943018370470A460021818B4FF6FB739F
:100A900019401143818370470A460021818B4FF62C
:100AA000FF3319404FF6FF7303EA02231943818392
:100AB00070470A460021018B4FF67F73194011439E
:100AC000018370470A460021018BC1F30E014FF6E6
:100AD000FF7303EA02231943018370470A4600218A
:100AE000818B4FF67F7319401143818370470A460B
:100AF0000021818BC1F30E014FF6FF7303EA02233D
:100B00001943818370470A460021018C4FF6FD731B
:100B100019401143018470470A460021018C4FF6A9
:100B2000F77319401143018470470A460021018C74
:100B30004FF6DF7319404FF6FF7303EA02131943B0
:100B4000018470470A460021018C4FF67F731940DB
:100B50004FF6FF7303EA02131943018470470A46F4
:100B60000021018C4FF6FF5319404FF6FF7303EA43
:100B700002231943018470470A460021018C4FF279
:100B8000FF7319404FF6FF7303EA022319430184F0
:100B900070470A460021018C4DF6FF7319404FF64D
:100BA000FF7303EA023319430184704730B5002311
:100BB00001248C40A3B2048C9C430484048C02FA6C
:100BC00001F5ADB22C43048430BD30B500230424BC
:100BD0008C40A3B2048C9C430484048C02FA01F57B
:100BE000ADB22C43048430BD828B4FF2FF331A40E8
:100BF0008283828B4FF6FF7303EA01231A438283B9
:100C00007047F0B50C461546002100220026078CDF
:100C10004EF6FF7C07EA0C070784818B028C4FF6A7
:100C2000FF7707EA043640F6FF4739404FF6FF7773
:100C300007EA052739434FF6FF7707EA03373943B9
:100C400045F6FF773A4046F480573A438183028461
:100C5000F0BD828B4FF6F3731A408283828B0A4376
:100C600082837047F0B50C4615460021002200260D
:100C7000078C4FF6FF6C07EA0C070784818B028C08
:100C80004FF6FF7707EA04264FF60C7739404FF608
:100C9000FF7707EA03172F4339434FF2FF573A40D4
:100CA00046F480773A4381830284F0BD028B4FF291
:100CB000FF331A400283028B4FF6FF7303EA0123CE
:100CC0001A4302837047F0B50C46154600210022F6
:100CD0000026078C4FF6EF7C07EA0C070784018B90
:100CE000028C4FF6FF7707EA041640F6FF473940BB
:100CF0004FF6FF7707EA033739434FF6FF7703E0F4
:100D0000000001400004014007EA052739434FF67F
:100D10005F773A4046F010073A4301830284F0BD02
:100D2000028B4FF6F3731A400283028B0A4302834D
:100D30007047F0B50C46154600210022068C4FF690
:100D4000FE773E400684018B028C4FF60C763140D4
:100D50007E1C06EA03162E4331434FF6F5763240E9
:100D600044F00106324301830284F0BD70B50546AC
:100D70000C46208850B92389A28861882846FFF74D
:100D8000D8FFE1882846FFF7CBFF25E0208804281C
:100D90000AD12389A28861882846FFF794FFE18859
:100DA0002846FFF783FF17E0208808280AD1238907
:100DB000A28861882846FFF755FFE1882846FFF79B
:100DC00048FF09E02389A28861882846FFF719FFB8
:100DD000E1882846FFF708FF70BD002101804180AF
:100DE000012181800021C180018170472DE9F041FE
:100DF00005460C4600260127608808B9022600E057
:100E00000026A088012801D1022700E001272088C0
:100E1000A0B92389A28861882846FFF78AFFE18864
:100E20002846FFF77DFF23893A4631462846FFF7DB
:100E30004AFFE1882846FFF739FF13E02389A2889B
:100E400061882846FFF73FFFE1882846FFF72EFF1D
:100E500023893A4631462846FFF76BFFE18828464A
:100E6000FFF75EFFBDE8F0810146486B7047014621
:100E7000886B70470146C86B70470146086C704725
:100E80000A884B881A438B881A43CB881A430B89EC
:100E90001A434B891A438B891A43A0F844207047A0
:100EA0000021018041808180C18001814181818157
:100EB000704731B1B0F8442042F40042A0F8442019
:100EC00005E0B0F84420C2F30E02A0F844207047B9
:100ED00021B1828842F00402828004E082884FF6C9
:100EE000FB731A408280704721B1828842F0010270
:100EF000828004E082884FF6FE731A408280704739
:100F00001AB183890B43838102E083898B438381F8
:100F100070478182704702460020138A0B4201D03D
:100F2000012000E000207047CA430282704730B5BC
:100F30000246002000230024158A05EA0103958952
:100F400005EA010413B10CB1012000E0002030BD1E
:100F5000CA430282704741EA0203A0F84830704752
:100F60001AB183890B43838102E083898B43838198
:100F7000704721B1828842F00802828004E08288B2
:100F80004FF6F7731A408280704701894FF6F87266
:100F90001140018170470A46002101894FF68F7385
:100FA000194011430181704730B504460D4629466A
:100FB0002046FFF7F0FF208940F00700208130BD78
:100FC0002DE9F04104460D4616461F46602D06D118
:100FD0003B46012231462046FFF775FE05E03B46C1
:100FE000012231462046FFF7A4FE29462046FFF79E
:100FF000D2FF208940F007002081BDE8F08130B5A4
:101000000C4600210189C9B24FF6FF7505EA032598
:10101000154325432943018130BD2DE9F0410546A3
:101020000E4617469846002443463A46314628461F
:10103000FFF7E5FF2C894FF6F870044044F00704F1
:101040004FF68F70044044F070042C81BDE8F081AD
:10105000F0B504460D4616461F463B463246294625
:101060002046FFF7CCFF208940F480402081F0BD6E
:1010700082884FF68F731A40828082880A4382806A
:10108000704702894FF6F8731A40028102890A43B9
:101090000281704702894FF67F731A4002810289EC
:1010A0000A4302817047F0B50C4615461E460021E2
:1010B000002200230189028B038C4FF6F877394018
:1010C00021434FF6FC473A4040F201173A434FF6AE
:1010D000DD773B404FF6FF7707EA06172F433B4388
:1010E000018102830384F0BD21B1828842F0800235
:1010F000828004E082884FF67F731A4082807047B6
:10110000A0F8501070470000F948006840F0010056
:10111000F74908600020F64908310860F448006883
:10112000F4490840F2490860F348091D0860F34893
:10113000EF4984310860F0481038091D0860EC4818
:10114000006820F48020EA4908600020E8490C315A
:101150000860E7498C31086070470021E44A921C1E
:10116000117011460870704710B501460022002327
:1011700000204A11012A02D1DD4C236808E0022A2E
:1011800003D1DB4C7034236802E0D94C74342368FB
:1011900001F01F02012494401C4201D0012000E014
:1011A000002010BD38B5002000900024002500BFAD
:1011B0003120FFF7D9FF05460098401C00900098A9
:1011C000B0F5A04F01D0002DF2D03120FFF7CCFFB9
:1011D00008B1012400E00024204638BD014600206B
:1011E000C34A106820F0F80040EAC1001060704760
:1011F000C349086070470021BD4A703211701170F8
:10120000012802D004280AD104E00121B84A703232
:10121000117005E00521B64A7032117000E000BF80
:1012200000BF7047B7490860704770B5049C41EA39
:1012300082150126C6EB530645EA0645054345EAF5
:101240000465AB4E361D356070BDAD49086670470C
:10125000820142EA0172A64B84331A607047A849A2
:101260008866704710B5830143EA016343EA02735D
:101270009F4C8834236010BDA14908677047A0497E
:10128000C864704702460020994B0833186820F064
:10129000EC6042EA01031843954B0833186070472D
:1012A00002460020924B0833186820F0784042EA4A
:1012B000010318438E4B0833186070470146002025
:1012C0008B4A0832106820F0030008431060704712
:1012D00087480830006800F00C0070470146002085
:1012E000834A0832106820F0F0000843106070470D
:1012F000014600207E4A0832106820F4E05008437E
:101300001060704701460020794A0832106820F4C6
:10131000604040EAC10010607047F0B50021002233
:101320000024022500260223714F08373F6807F08A
:101330000C0121B1042905D0082937D105E0724FED
:10134000076036E0714F076033E0694F3F1D3F682B
:10135000C7F38056664F3F1D3F6807F03F036EB1ED
:101360006A4FB7FBF3F7DFF888C10CF1040CDCF827
:1013700000C0CCF3881C07FB0CF40CE0624FB7FBF9
:10138000F3F7DFF86CC10CF1040CDCF800C0CCF30F
:10139000881C07FB0CF4564F3F1D3F68C7F30147FD
:1013A0007F1C7D00B4FBF5F7076002E0564F076035
:1013B00000BF00BF4E4F08373F6807F0F001090932
:1013C000534F7A5C0768D7404760494F08373F68FA
:1013D00007F4E051890A4E4F7A5C4768D74087602E
:1013E000434F08373F6807F46041490B484F7A5C28
:1013F0004768D740C760F0BD002100F44072B2F5E5
:10140000407F0AD13A4A0832116821F4F811414A62
:1014100002401143364A08321160354A7032126870
:10142000C0F30B031A43324B70331A6070473549CF
:10143000443908607047334940390860704736497D
:101440000860704701460020294A8C32106820F459
:10145000401008431060704701460020244A8C3237
:10146000106820F4400008431060704701460020D7
:101470001F4A8C32106820F01F004A1E10431C4A7D
:101480008C321060704701460020194A8C32106877
:1014900020F4F8504A1E40EA0220154A8C321060AF
:1014A000704701460020124A8C32106820F4403008
:1014B00008431060704719490860704739B10C4AF9
:1014C0003032126802430A4B30331A6006E0084A91
:1014D000303212688243064B30331A607047F9B1DC
:1014E000034A343212680243014B34331A601CE061
:1014F00000380240FFFFF6EA1030002400300020E0
:1015000000004742800E47420024F40000127A0097
:1015100006000020FFFCFF0F5C014742E01147423C
:101520008F4A126882438E4B1A60704739B18C4AD9
:10153000121D126802438A4B1B1D1A6006E0884A7E
:10154000121D12688243864B1B1D1A60704739B109
:10155000834A0C3212680243814B0C331A6006E056
:101560007F4A0C32126882437D4B0C331A607047FD
:1015700039B17B4A103212680243794B10331A603A
:1015800006E0774A103212688243754B10331A60B6
:10159000704739B1724A243A12680243704B243BB7
:1015A0001A6006E06E4A243A126882436C4B243B70
:1015B0001A60704739B16A4A203A12680243684B90
:1015C000203B1A6006E0664A203A12688243644B68
:1015D000203B1A60704739B1614A1C3A12680243D5
:1015E0005F4B1C3B1A6006E05D4A1C3A126882435E
:1015F0005B4B1C3B1A60704739B1594A143A126868
:101600000243574B143B1A6006E0554A143A1268DD
:101610008243534B143B1A60704739B1504A103A19
:10162000126802434E4B103B1A6006E04C4A103AD7
:10163000126882434A4B103B1A60704739B1484ADE
:101640001C3212680243464B1C331A6006E0444ABF
:101650001C3212688243424B1C331A60704739B106
:101660003F4A2032126802433D4B20331A6006E0A5
:101670003B4A203212688243394B20331A6070474C
:1016800039B1374A243212680243354B24331A6089
:1016900006E0334A243212688243314B24331A6005
:1016A000704739B12E4A2C32126802432C4B2C332E
:1016B0001A6006E02A4A2C3212688243284B2C33E7
:1016C0001A60704739B1264A303212680243244BFF
:1016D00030331A6006E0224A303212688243204BCF
:1016E00030331A607047012808D11D493C31096820
:1016F00041F008011A4A3C32116007E018493C31B8
:10170000096821F00801164A3C321160704739B16E
:10171000134A273A12780243114B273B1A7006E00E
:101720000F4A273A127882430D4B273B1A707047B5
:101730000B484030006840F0807009494031086033
:10174000704701460020064A283A12680A4201D032
:10175000012000E0002070470149263908707047D9
:101760003438024010B501210802FFF756FF00216E
:101770004FF48070FFF751FF10BD30B502460020D6
:1017800000235068F84C20400D790C6844EA052489
:10179000204350609068F54C2040D1E903542C431D
:1017A0008D682C434D7944EA450420439060D06A0B
:1017B00020F470000C7D641EE4B2234340EA035021
:1017C000D06230BD00210160017141718160C16052
:1017D00001610121017570470021E54A1168E54A60
:1017E00001EA0201D0E9002342EA0302836842EAE7
:1017F0000302C36842EA030242EA0101DE4AC2F878
:10180000041370470021016041608160C16070472E
:1018100021B1826842F00102826003E0826822F016
:101820000102826070470A4600214168D34B19408B
:101830001143416070474162826270470A4600214D
:10184000416821F01F0111434160704738B1C84918
:10185000096841F40001C84AC2F8041306E0C4490B
:10186000096821F40001C44AC2F80413704738B172
:10187000BF49096841F48001BF4AC2F8041306E079
:10188000BB49096821F48001BB4AC2F804137047C0
:10189000F0B504460D4600200021092D11DDE06859
:1018A000A5F10A0606EB4607072606FA07F1884364
:1018B000A5F10A0606EB460603FA06F10843E060C6
:1018C0000CE0206905EB4507072606FA07F1884377
:1018D00005EB450603FA06F108432061072A0FDAF3
:1018E000606B561E06EB86071F2606FA07F1884333
:1018F000561E06EB860605FA06F10843606322E0F1
:101900000D2A0FDA206BD61F06EB86071F2606FA74
:1019100007F18843D61F06EB860605FA06F1084351
:10192000206310E0E06AA2F10D0606EB86071F2691
:1019300006FA07F18843A2F10D0606EB860605FAC2
:1019400006F10843E062F0BD816841F080418160AA
:101950007047014600208A6812F0804F01D00120B4
:1019600000E00020704721B1826842F4806282600A
:1019700003E0826822F480628260704721B182684D
:1019800042F00202826003E0826822F0020282607A
:10199000704710B50A4600210023416821F46041D8
:1019A000531E41EA4331416010BD21B1426842F407
:1019B0000062426003E0426822F4006242607047C5
:1019C0000146C86C80B270476D480068704721B10D
:1019D000826842F48072826003E0826822F480723E
:1019E0008260704721B1826842F40072826003E035
:1019F000826822F400728260704738B15C490968DD
:101A000041F400515C4AC2F8041306E058490968E1
:101A100021F40051584AC2F804137047F0B5044647
:101A20001546002000220026092911DDE068A1F1F9
:101A30000A0707EB470C072707FA0CF29043A1F1BE
:101A40000A0707EB470703FA07F21043E0600CE0D0
:101A5000206901EB410C072707FA0CF2904301EBD8
:101A6000410703FA07F210432061A06BC0F301564F
:101A7000EF1C06F1010CA7EB0C0707EB870C1F27E7
:101A800007FA0CF29043EF1C06F1010CA7EB0C07D0
:101A900007EB870701FA07F21043A063F0BD10B50A
:101AA0000A4600210023816B21F44011531E41EAB4
:101AB0000351816310BD08B5002300930090009B83
:101AC0000B440093009B1A6008BD0A460021816800
:101AD00021F470211143816070470A46002181681A
:101AE00021F44011114381607047816841F4800105
:101AF00081607047014600208A6812F4800F01D08F
:101B0000012000E00020704721B1426842F4806269
:101B1000426003E0426822F480624260704721B173
:101B2000426842F48052426003E0426822F48052EC
:101B30004260704708B5024600200090009201F113
:101B40002800009B184400900098006880B208BDEF
:101B500010B50B460021D9B2012404FA01F18AB173
:101B600044680C43446010E0FFFEFFFCFDF7FFC03B
:101B700004230140E030FCFF00200140FFFD3FFF57
:101B80000823014044688C43446010BD0246002095
:101B900013680B4201D0012000E000207047CA43C7
:101BA0000260704770B502460020002300240B122B
:101BB000556801268E4005EA060415681D4202D0CC
:101BC0000CB1012000E0002070BD00220A12D343B6
:101BD0000360704710B504469848844208D101213B
:101BE0000846FFF7D6FC00210120FFF7D2FC76E083
:101BF0009348844208D101210220FFF7CAFC00214A
:101C00000220FFF7C6FC6AE08E48844208D1012119
:101C10000420FFF7BEFC00210420FFF7BAFC5EE0C1
:101C20008948844208D101210820FFF7B2FC002135
:101C30000820FFF7AEFC52E08448844208D101211D
:101C40001020FFF7A6FC00211020FFF7A2FC46E0C1
:101C50007F48844208D101212020FFF79AFC00210F
:101C60002020FFF796FC3AE07A48844208D101210F
:101C70004020FFF78EFC00214020FFF78AFC2EE079
:101C80007548844208D101218020FFF782FC0021A1
:101C90008020FFF77EFC22E07048844208D10121B9
:101CA0008015FFF776FC0021A015FFF772FC16E007
:101CB0006B48844208D101214015FFF76AFC0021DE
:101CC0006015FFF766FC0AE06648844207D10121EF
:101CD0000015FFF75EFC00212015FFF75AFC10BD30
:101CE000F0B50A4600210023002400BF3DE0012595
:101CF00005FA01F3156805EA03049C4234D105682E
:101D00004F000326BE40B543056015794E00B5402F
:101D10000668354305601579012D02D01579022D2D
:101D200016D185684F000326BE40B54385605579BE
:101D30004E00B540866835438560456801268E4073
:101D4000B5434560456896798E40B6B235434560E7
:101D5000C5684F000326BE40B543C560D5794E0027
:101D6000B540C6683543C560491C1029BFD3F0BDD6
:101D70004FF6FF7101600021017141718171C171E4
:101D8000704708B54FF480320092009A0A430092DF
:101D9000009AC261C161009AC261C2690092C269BF
:101DA000009208BD0246002013690B4201D00120B9
:101DB00000E0002070470146086980B27047024683
:101DC000002053690B4201D0012000E00020704741
:101DD0000146486980B2704701837047418370476C
:101DE0000AB1018300E04183704741617047426955
:101DF0004A4042617047F0B5002300244D07ED0EC4
:101E000002FA05F3CE1000F1200555F826504E07D2
:101E1000F70E0F26BE40B543CF1000F1200646F85E
:101E20002750CE1000F1200555F8265045EA03044E
:101E3000CE1000F1200545F82640F0BD000002401C
:101E40000004024000080240000C02400010024062
:101E50000014024000180240001C02400020024012
:101E6000002402400028024010B501214807FFF776
:101E7000C3FB00214FF00050FFF7BEFB10BD30B593
:101E8000002200237B4C226840F6FE748440A2436B
:101E9000D1E900452C438D682C43CD6844EA050305
:101EA00003FA00F42243734C226030BD002101602C
:101EB00041608160C160704739B16E4A1268012388
:101EC00083401A436B4B1A6006E06A4A126801238A
:101ED00083409A43674B1A60704710B551B1654A09
:101EE000121D126804090123A3401A43614B1B1DF4
:101EF0001A6009E05F4A121D126804090123A34019
:101F00009A435C4B1B1D1A6010BD40B15949091D15
:101F1000096841F00301574A121D116007E0554955
:101F2000091D096821F00301524A121D1160704712
:101F300010B53AB14F4B1B6801FA00F423434D4CE6
:101F4000236006E04B4B1B6801FA00F4A343494CA5
:101F5000236010BD08B500220092464A009200F1AD
:101F60000802009B1A440092009A116008BD08B54F
:101F7000002200923F4A009200F11402009B1A4492
:101F80000092009A116008BD30B500240023082893
:101F900002D142EA012401E042EA0144354B00F15A
:101FA00020052B441C6030BD08B501460020009080
:101FB000304800902C2000EB9100009A10440090D3
:101FC0000098006880B208BD41B12A4A12684FF4F7
:101FD000805383401A43274B1A6007E0254A126852
:101FE0004FF4805383409A43224B1A60704710B5D8
:101FF0003AB1204B1B6801FA00F423431D4C2360C7
:1020000006E01C4B1B6801FA00F4A343194C236043
:1020100010BD10B502460020164B34331B6801FA80
:1020200002F4234201D0012000E0002010BD01FA9B
:1020300000F2104B34331A60704730B5024600206E
:1020400000230C4C246801FA02F504EA0503094C4C
:102050003434246801FA02F52C4202D00BB101207D
:1020600000E0002030BD01FA00F2024B34331A6068
:1020700070470000007400400CB5002001900090F3
:102080007548006840F480307349086000BF7248AA
:10209000006800F4003000900198401C0190009806
:1020A00018B90198B0F5A04FF1D16B48006810F451
:1020B000003F02D00120009001E000200090009835
:1020C000012845D164484030006840F080506249A2
:1020D000403108606148006840F440405F49086052
:1020E0005D48083000685C490831086008460068AF
:1020F00040F4004008600846006840F4A0500860C2
:102100005748091F0860081F006840F08070091FC9
:10211000086000BF5048006810F0007FFAD040F21D
:102120000560504908604C480830006820F0030002
:102130004949083108600846006840F0020008601C
:1021400000BF45480830006800F00C000828F8D1AE
:102150000CBD10B54448006840F470004249086066
:102160003D48006840F001003B49086000203A49C2
:1021700008310860384800683C4908403649086022
:102180003B48091D0860081F006820F48020091FD3
:102190000860002030490C310860FFF76DFF4FF0F8
:1021A000006031498039086010BD70B50020002200
:1021B000022300240221284D08352D6805F00C006B
:1021C00020B1042806D0082834D107E0294D2A4E32
:1021D000356033E0294D284E35602FE01E4D2D1D12
:1021E0002D68C5F380541C4D2D1D2D6805F03F0151
:1021F00054B1224DB5FBF1F5174E361D3668C6F3C6
:10220000881605FB06F209E01A4DB5FBF1F5124EF2
:10221000361D3668C6F3881605FB06F20E4D2D1DD9
:102220002D68C5F301456D1C6B00B2FBF3F5124E32
:10223000356003E00F4D104E356000BF00BF064D06
:1022400008352D68C5F303150D4E705D0A4D2D68D8
:10225000C540094E356070BD003802400070004036
:1022600008544007003C024088ED00E0FFFFF6FE06
:10227000103000240024F4001800002000127A001E
:102280001C0000200648804706480047FEE7FEE79E
:10229000FEE7FEE7FEE7FEE7FEE7FEE7FEE7FEE716
:1022A0005321000889010008064C074D06E0E0684C
:1022B00040F0010394E8070098471034AC42F6D38D
:1022C000FDF766FFEC2200080C23000802E008C8B6
:1022D000121F08C1002AFAD170477047002001E0A0
:1022E00001C1121F002AFBD1704700000C23000817
:1022F000000000202C000000CC2200083823000839
:102300002C00002004040000DC2200080000000073
:10231000000000000000010203040102030406079C
:1023200008090000007A030A000000000000000015
:0823300001020304060708097D
:040000050800018965
:00000001FF
